{
  "transactions": [
    {
      "hash": "0x1a043646bbde136ab47c81342b871b61f402c760193665564fe5635a147c788d",
      "transactionType": "CALL",
      "contractName": null,
      "contractAddress": "0x7c39408ac96a1b9a2722056ede90b54d2b260380",
      "function": "setTokenSupport(address,uint256)",
      "arguments": [
        "0x036CbD53842c5426634e7929541eC2318f3dCF7e",
        "1"
      ],
      "transaction": {
        "from": "0xb2786c1b0f7d7b796887676e643d1c9ef89e0655",
        "to": "0x7c39408ac96a1b9a2722056ede90b54d2b260380",
        "gas": "0x1203c",
        "value": "0x0",
        "input": "0xf89248a4000000000000000000000000036cbd53842c5426634e7929541ec2318f3dcf7e0000000000000000000000000000000000000000000000000000000000000001",
        "nonce": "0xb",
        "chainId": "0x14a34"
      },
      "additionalContracts": [],
      "isFixedGasLimit": false
    }
  ],
  "receipts": [
    {
      "status": "0x1",
      "cumulativeGasUsed": "0xf0dcaf",
      "logs": [
        {
          "address": "0x7c39408ac96a1b9a2722056ede90b54d2b260380",
          "topics": [
            "0x475cd53258eb63abbbc7ae999308fd56beb3f4d5c002442aaa733a5010295618",
            "0x0d769a9388022d278ccb3adca44abfa0f59322de1ee750a9b5ee343f634b51e9"
          ],
          "data": "0x0000000000000000000000000000000000000000000000000000000000000001",
          "blockHash": "0xe292dcb6797cfba65e17a5715635ba079d7ce09327d0a32f7ccdc84c2e53932d",
          "blockNumber": "0x21f8746",
          "blockTimestamp": "0x69526d6c",
          "transactionHash": "0x1a043646bbde136ab47c81342b871b61f402c760193665564fe5635a147c788d",
          "transactionIndex": "0x14",
          "logIndex": "0x13b",
          "removed": false
        }
      ],
      "logsBloom": "0x00000000000000000000000000000000000002000000000000000000000000000000000000000000000000000000000000000000000000000000000000400000000000800000000000000000000000000000000000000002000000000000000000000000000000000000000000000000000000000000000000000000000000000000000000000000000000000000000000000000000000000000000000000000000000000000000000000000000000000000000000000000000000000000000000000000000010000000000000000000000081000000000000000000000000000000000000000000000000000000000000400000000800000000000000000000",
      "type": "0x2",
      "transactionHash": "0x1a043646bbde136ab47c81342b871b61f402c760193665564fe5635a147c788d",
      "transactionIndex": "0x14",
      "blockHash": "0xe292dcb6797cfba65e17a5715635ba079d7ce09327d0a32f7ccdc84c2e53932d",
      "blockNumber": "0x21f8746",
      "gasUsed": "0xd0ae",
      "effectiveGasPrice": "0x125b37",
      "blobGasUsed": "0x79e0",
      "from": "0xb2786c1b0f7d7b796887676e643d1c9ef89e0655",
      "to": "0x7c39408ac96a1b9a2722056ede90b54d2b260380",
      "contractAddress": null,
      "daFootprintGasScalar": "0x138",
      "l1BaseFeeScalar": "0x44d",
      "l1BlobBaseFee": "0xbd6",
      "l1BlobBaseFeeScalar": "0xa118b",
      "l1Fee": "0x4702a",
      "l1GasPrice": "0xc99e",
      "l1GasUsed": "0x640"
    }
  ],
  "libraries": [],
  "pending": [],
  "returns": {},
  "timestamp": 1767009644711,
  "chain": 84532,
  "commit": "c172c13"
}