{
  "transactions": [
    {
      "hash": "0x634d51c4417f43dbbf0bfe221f2727088c95f2966ca7193d69651493a510e2ad",
      "transactionType": "CALL",
      "contractName": null,
      "contractAddress": "0xc7597afad614f4b738d808bbaa9958a1bac485e4",
      "function": "setTokenSupport(address,uint256)",
      "arguments": [
        "0x41E94Eb019C0762f9Bfcf9Fb1E58725BfB0e7582",
        "1"
      ],
      "transaction": {
        "from": "0xb2786c1b0f7d7b796887676e643d1c9ef89e0655",
        "to": "0xc7597afad614f4b738d808bbaa9958a1bac485e4",
        "gas": "0x1203c",
        "value": "0x0",
        "input": "0xf89248a400000000000000000000000041e94eb019c0762f9bfcf9fb1e58725bfb0e75820000000000000000000000000000000000000000000000000000000000000001",
        "nonce": "0x6",
        "chainId": "0x13882"
      },
      "additionalContracts": [],
      "isFixedGasLimit": false
    }
  ],
  "receipts": [
    {
      "status": "0x1",
      "cumulativeGasUsed": "0xd0ae",
      "logs": [
        {
          "address": "0xc7597afad614f4b738d808bbaa9958a1bac485e4",
          "topics": [
            "0x475cd53258eb63abbbc7ae999308fd56beb3f4d5c002442aaa733a5010295618",
            "0x09470a2740f4366327f50afd3c00d4215db4f5cba70841163169abf471a50c96"
          ],
          "data": "0x0000000000000000000000000000000000000000000000000000000000000001",
          "blockHash": "0x7f9b3b8d4b60b4b3ea488634a2ee516324722ffad487b0c40964563e1234bbf9",
          "blockNumber": "0x1e1947d",
          "blockTimestamp": "0x6956c3b3",
          "transactionHash": "0x634d51c4417f43dbbf0bfe221f2727088c95f2966ca7193d69651493a510e2ad",
          "transactionIndex": "0x0",
          "logIndex": "0x0",
          "removed": false
        },
        {
          "address": "0x0000000000000000000000000000000000001010",
          "topics": [
            "0x4dfe1bbbcf077ddc3e01291eea2d5c70c2b422b415d95645b9adcfd678cb1d63",
            "0x0000000000000000000000000000000000000000000000000000000000001010",
            "0x000000000000000000000000b2786c1b0f7d7b796887676e643d1c9ef89e0655",
            "0x0000000000000000000000007ee41d8a25641000661b1ef5e6ae8a00400466b0"
          ],
          "data": "0x000000000000000000000000000000000000000000000000005ee58352987000000000000000000000000000000000000000000000000000796934a72cce9e4600000000000000000000000000000000000000000000158baadd426a43520a90000000000000000000000000000000000000000000000000790a4f23da362e4600000000000000000000000000000000000000000000158bab3c27ed95ea7a90",
          "blockHash": "0x7f9b3b8d4b60b4b3ea488634a2ee516324722ffad487b0c40964563e1234bbf9",
          "blockNumber": "0x1e1947d",
          "blockTimestamp": "0x6956c3b3",
          "transactionHash": "0x634d51c4417f43dbbf0bfe221f2727088c95f2966ca7193d69651493a510e2ad",
          "transactionIndex": "0x0",
          "logIndex": "0x1",
          "removed": false
        }
      ],
      "logsBloom": "0x00000000000000000000000000000000000000020000004000000000000000000000000000000000000000000000000000008000000000000000000000100000000000000000000000000000000000800000000000000000000104000000000000000000000000000002000000000000000000000000000080000100000000000000000000000000020000000400000000000000000000000000000000000000200000000000000000000000000000000000000000000000000001000010004000000000000010000001000000000000000080400000000000100000000000000000000000000000000000000004000000000000000800000000000000100000",
      "type": "0x2",
      "transactionHash": "0x634d51c4417f43dbbf0bfe221f2727088c95f2966ca7193d69651493a510e2ad",
      "transactionIndex": "0x0",
      "blockHash": "0x7f9b3b8d4b60b4b3ea488634a2ee516324722ffad487b0c40964563e1234bbf9",
      "blockNumber": "0x1e1947d",
      "gasUsed": "0xd0ae",
      "effectiveGasPrice": "0x746a52883f",
      "from": "0xb2786c1b0f7d7b796887676e643d1c9ef89e0655",
      "to": "0xc7597afad614f4b738d808bbaa9958a1bac485e4",
      "contractAddress": null
    }
  ],
  "libraries": [],
  "pending": [],
  "returns": {},
  "timestamp": 1767293875731,
  "chain": 80002,
  "commit": "37c24ba"
}